:020000040000FA
:0E000000271182000000820000008200000034
:1000100021389038903603369138AD390F20AD3203
:100020002D30010E03251F100608813FFE088F3872
:10003000AC3201082C3A03241F10AC39292C0108DA
:100040008F38113683381036203823389239933957
:1000500006202C100108923804081E3A0320811053
:100060001E30823F3610421051107210A7399C3951
:100070009A390008123C0321821012309C38010882
:100080009E3882101C30123E03254F10A732030801
:10009000273A03248210A73902089E3882109E391D
:1000A00082101C30123E03256110A7399A32C8080D
:1000B0001A3A032482109A394008933803089E386C
:1000C00082100008123C03256F10A7320308273A5C
:1000D00003248210A739800893389E398210A739EB
:1000E0009E3982109C390008123C03257F10A732EC
:1000F0000308273A03248210A7399E398210A739B2
:1001000082109E3913302238261894389427A41070
:100110009539A9209532153096380108163E963843
:10012000953816340324A9280320A92C9539862252
:100130009532153096380108163E963895381634A3
:100140000324862A0320862E1427D71064080A3A2F
:100150000324AC10292AAD10292E94392922943277
:1001600014309538010E0325BF106508173A032097
:10017000BC100A08973FC71064089738C7100008DA
:10018000173C0321C610F608973FC7109739173060
:100190008A38943906229432143095380108153E75
:1001A0009538943815340324062A0320062E223865
:1001B000050000000100000018000000020000001F
:1001C000030000001A00000002000000050000000B
:1001D0001C000000020000006B0001001E00000077
:1001E000020000006D000100270000000200000076
:1001F000A92016111830AE3898320B082E3A032475
:1002000016119839873900080F3800080E388F39D1
:10021000213802080F380338003800380038003819
:10022000043800080F38621920388F392238000846
:1002300005388539010806388639FF080938FF086E
:100240000B38FE080D3800080E388D392238571942
:10025000171962194B19203829242C112928F8184C
:1002600084182C112238882F082F8E396408893879
:1002700032088C3801080F38F7088F382238882F59
:10028000882E8E396408893832088B3801080F3877
:10029000F7088F382238882F082E8E39640889385D
:1002A00032088A3801080F38F7088F38223890084A
:1002B0008438FF08043A03206011803984325911D0
:1002C000803922380208023801080F3806088138C0
:0E02D000FE088F3822388200000082000000F5
:00000001FF
